{
  "_format": "hh-sol-artifact-1",
  "contractName": "Token",
  "sourceName": "contracts/Token.sol",
  "abi": [
    {
      "inputs": [],
      "stateMutability": "nonpayable",
      "type": "constructor"
    },
    {
      "anonymous": false,
      "inputs": [
        {
          "indexed": true,
          "internalType": "address",
          "name": "_from",
          "type": "address"
        },
        {
          "indexed": true,
          "internalType": "address",
          "name": "_to",
          "type": "address"
        },
        {
          "indexed": false,
          "internalType": "uint256",
          "name": "_value",
          "type": "uint256"
        }
      ],
      "name": "Transfer",
      "type": "event"
    },
    {
      "inputs": [
        {
          "internalType": "address",
          "name": "account",
          "type": "address"
        }
      ],
      "name": "balanceOf",
      "outputs": [
        {
          "internalType": "uint256",
          "name": "",
          "type": "uint256"
        }
      ],
      "stateMutability": "view",
      "type": "function"
    },
    {
      "inputs": [
        {
          "internalType": "uint256",
          "name": "amount",
          "type": "uint256"
        }
      ],
      "name": "burn",
      "outputs": [],
      "stateMutability": "nonpayable",
      "type": "function"
    },
    {
      "inputs": [],
      "name": "name",
      "outputs": [
        {
          "internalType": "string",
          "name": "",
          "type": "string"
        }
      ],
      "stateMutability": "view",
      "type": "function"
    },
    {
      "inputs": [],
      "name": "owner",
      "outputs": [
        {
          "internalType": "address",
          "name": "",
          "type": "address"
        }
      ],
      "stateMutability": "view",
      "type": "function"
    },
    {
      "inputs": [],
      "name": "symbol",
      "outputs": [
        {
          "internalType": "string",
          "name": "",
          "type": "string"
        }
      ],
      "stateMutability": "view",
      "type": "function"
    },
    {
      "inputs": [],
      "name": "totalSupply",
      "outputs": [
        {
          "internalType": "uint256",
          "name": "",
          "type": "uint256"
        }
      ],
      "stateMutability": "view",
      "type": "function"
    },
    {
      "inputs": [
        {
          "internalType": "address",
          "name": "to",
          "type": "address"
        },
        {
          "internalType": "uint256",
          "name": "amount",
          "type": "uint256"
        }
      ],
      "name": "transfer",
      "outputs": [],
      "stateMutability": "nonpayable",
      "type": "function"
    }
  ],
  "bytecode": "0x60c0604052600760809081526626bcaa37b5b2b760c91b60a052600090610026908261012f565b506040805180820190915260038152624d546b60e81b602082015260019061004e908261012f565b5061271060025534801561006157600080fd5b5060025433600081815260046020526040902091909155600380546001600160a01b03191690911790556101ed565b634e487b7160e01b600052604160045260246000fd5b600181811c908216806100ba57607f821691505b6020821081036100da57634e487b7160e01b600052602260045260246000fd5b50919050565b601f82111561012a57806000526020600020601f840160051c810160208510156101075750805b601f840160051c820191505b818110156101275760008155600101610113565b50505b505050565b81516001600160401b0381111561014857610148610090565b61015c8161015684546100a6565b846100e0565b6020601f82116001811461019057600083156101785750848201515b600019600385901b1c1916600184901b178455610127565b600084815260208120601f198516915b828110156101c057878501518255602094850194600190920191016101a0565b50848210156101de5786840151600019600387901b60f8161c191681555b50505050600190811b01905550565b6104ed806101fc6000396000f3fe608060405234801561001057600080fd5b506004361061007d5760003560e01c806370a082311161005b57806370a08231146100cc5780638da5cb5b146100f557806395d89b4114610120578063a9059cbb1461012857600080fd5b806306fdde031461008257806318160ddd146100a057806342966c68146100b7575b600080fd5b61008a61013b565b604051610097919061036c565b60405180910390f35b6100a960025481565b604051908152602001610097565b6100ca6100c53660046103ba565b6101c9565b005b6100a96100da3660046103ef565b6001600160a01b031660009081526004602052604090205490565b600354610108906001600160a01b031681565b6040516001600160a01b039091168152602001610097565b61008a610277565b6100ca610136366004610411565b610284565b600080546101489061043b565b80601f01602080910402602001604051908101604052809291908181526020018280546101749061043b565b80156101c15780601f10610196576101008083540402835291602001916101c1565b820191906000526020600020905b8154815290600101906020018083116101a457829003601f168201915b505050505081565b336000908152600460205260409020548111156102215760405162461bcd60e51b81526020600482015260116024820152704e6f7420656e6f75676820746f6b656e7360781b60448201526064015b60405180910390fd5b336000908152600460205260408120805483929061024090849061048b565b90915550506003546001600160a01b03166000908152600460205260408120805483929061026f9084906104a4565b909155505050565b600180546101489061043b565b336000908152600460205260409020548111156102d75760405162461bcd60e51b81526020600482015260116024820152704e6f7420656e6f75676820746f6b656e7360781b6044820152606401610218565b33600090815260046020526040812080548392906102f690849061048b565b90915550506001600160a01b038216600090815260046020526040812080548392906103239084906104a4565b90915550506040518181526001600160a01b0383169033907fddf252ad1be2c89b69c2b068fc378daa952ba7f163c4a11628f55a4df523b3ef9060200160405180910390a35050565b602081526000825180602084015260005b8181101561039a576020818601810151604086840101520161037d565b506000604082850101526040601f19601f83011684010191505092915050565b6000602082840312156103cc57600080fd5b5035919050565b80356001600160a01b03811681146103ea57600080fd5b919050565b60006020828403121561040157600080fd5b61040a826103d3565b9392505050565b6000806040838503121561042457600080fd5b61042d836103d3565b946020939093013593505050565b600181811c9082168061044f57607f821691505b60208210810361046f57634e487b7160e01b600052602260045260246000fd5b50919050565b634e487b7160e01b600052601160045260246000fd5b8181038181111561049e5761049e610475565b92915050565b8082018082111561049e5761049e61047556fea264697066735822122035e222207151e468dd7469a9472ebf0c1ab5432b1120ff20703e3f6f8ebce91164736f6c634300081a0033",
  "linkReferences": {},
  "deployedLinkReferences": {}
}